:020000040800F2
:1000000098140020D50100089D080008E5050008A7
:10001000990800087B030008A112000800000000F6
:100020000000000000000000000000002B0C000891
:10003000B3030008000000009F08000851100008EA
:10004000EF010008EF010008EF010008EF010008D0
:10005000EF010008EF010008EF010008EF010008C0
:10006000EF010008EF010008EF010008EF010008B0
:10007000EF010008EF010008EF010008EF010008A0
:10008000EF010008EF010008EF010008EF01000890
:10009000EF010008EF010008EF010008EF01000880
:1000A000EF010008EF010008EF010008EF01000870
:1000B000EF010008EF010008EF010008EF01000860
:1000C000EF010008EF010008EF010008EF01000850
:1000D000EF010008EF010008EF010008EF01000840
:1000E000EF010008EF010008EF010008EF01000830
:1000F000EF010008EF010008EF010008EF01000820
:10010000EF010008EF010008EF010008EF0100080F
:10011000EF010008EF010008EF010008EF010008FF
:10012000EF010008EF010008EF010008EF010008EF
:1001300000F002F800F03AF80AA090E8000C8244BF
:100140008344AAF10107DA4501D100F02FF8AFF29C
:10015000090EBAE80F0013F0010F18BFFB1A43F0A5
:10016000010318476418000084180000103A24BFE7
:1001700078C878C1FAD8520724BF30C830C144BF0C
:1001800004680C607047000000230024002500264E
:10019000103A28BF78C1FBD8520728BF30C148BFEA
:1001A0000B6070471FB51FBD10B510BD00F0ACF857
:1001B0001146FFF7F7FF01F0B1F900F0CAF803B4F8
:1001C000FFF7F2FF03BC00F0D1F8000080F30888CD
:1001D000704700000948804709480047FEE7FEE7EE
:1001E000FEE7FEE7FEE7FEE7FEE7FEE7FEE7FEE7E7
:1001F00004480549054A064B7047000055100008A1
:1002000031010008980E002098140020981000205A
:1002100098100020032A40F2308010F0030C00F008
:10022000158011F8013BBCF1020F624498BF11F830
:1002300001CB00F8013B38BF11F8013BA2F10402E9
:1002400098BF00F801CB38BF00F8013B11F0030361
:1002500000F02880083AC0F0088051F8043B083AC2
:1002600051F804CBA0E80810F5E7121D5CBF51F867
:10027000043B40F8043BAFF30080D20724BF11F8E1
:10028000013B11F801CB48BF11F8012B24BF00F846
:10029000013B00F801CB48BF00F8012B70477047C5
:1002A0007047704710B5203AC0F00B80B1E8185085
:1002B000203AA0E81850B1E81850A0E81850BFF450
:1002C000F5AF5FEA027C24BFB1E81850A0E81850EF
:1002D00044BF18C918C0BDE810405FEA827C24BF43
:1002E00051F8043B40F8043B08BF7047D20728BFD1
:1002F00031F8023B48BF11F8012B28BF20F8023B20
:1003000048BF00F8012B7047754600F02BF8AE4649
:1003100005006946534620F00700854618B020B511
:10032000FFF766FFBDE820404FF000064FF00007E2
:100330004FF000084FF0000B21F00701AC46ACE88D
:10034000C009ACE8C009ACE8C009ACE8C0098D46FA
:10035000704710B50446AFF300802046BDE810405A
:10036000FFF72DBF00487047340E002001491820C8
:10037000ABBEFEE726000200704700BFFEE7F0B507
:1003800005460E460024AF1905E015F8011BA0B282
:1003900000F06DFF0446BD42F7D3A0B2002100F08B
:1003A00066FF04462046002100F061FF0446204617
:1003B000F0BD704730B5044604254FF4302000F0FE
:1003C0006FF80546042D17D10C48006940F0020073
:1003D0000A49086108464461006940F0400008612C
:1003E0004FF4302000F05CF805460448006941F6FF
:1003F000FD71084001490861284630BD00200240D7
:1004000004200B49C96801F0010109B101200EE087
:100410000749C96801F0040109B1022007E0044955
:10042000C96801F0100109B1032000E00420704701
:10043000002002400348006940F080000149086143
:10044000704700000020024070B504460D460426A7
:10045000F00200F025F80646042E11D10948006983
:1004600040F00100074908612580F00200F018F80B
:1004700006460448006941F6FE71084001490861DA
:10048000304670BD002002400248034948600348DE
:10049000486070472301674500200240AB89EFCDDB
:1004A00000B502460423FFF7ABFF034603E0FFF766
:1004B000A7FF0346521E012B01D1002AF7D102B932
:1004C0000523184600BD2DE9F0410246002500260F
:1004D000002000230024002791F803C00CF00F0532
:1004E00091F803C00CF0100CBCF1000F03D091F890
:1004F00002C04CEA050591F800C0BCF1000F31D0F4
:10050000146800202BE04FF0010C0CFA00F3B1F856
:1005100000C00CEA03069E4220D183004FF00F0C6E
:100520000CFA03F7BC4305FA03FC4CEA040491F807
:1005300003C0BCF1280F06D14FF0010C0CFA00FCEF
:10054000C2F814C00AE091F803C0BCF1480F05D10D
:100550004FF0010C0CFA00FCC2F810C0401C082837
:10056000D1D31460B1F800C0BCF1FF0F34DD546882
:1005700000202EE000F1080C4FF0010808FA0CF3FF
:10058000B1F800C00CEA03069E4221D183004FF06F
:100590000F0C0CFA03F7BC4305FA03FC4CEA040405
:1005A00091F803C0BCF1280F05D100F1080C08FA3E
:1005B0000CF8C2F8148091F803C0BCF1480F07D1C1
:1005C00000F1080C4FF0010808FA0CF8C2F810808E
:1005D000401C0828CED35460BDE8F08141617047CB
:1005E0000161704700BFFEE7F0B5144A0025002402
:1005F000002320E0B1FBF2F6303606F0FF0C2E4669
:100600006D1C00F806C0B1FBF2F602FB16110A26BB
:10061000B2FBF6F26E1E865D302E01D1012600E09F
:1006200000260CB9012700E000273E400EB100254E
:1006300000E0641C5B1C0A2BDCD3F0BD00CA9A3BB3
:1006400008B50524002000904A4800F0EBFB4A481A
:1006500000F0E8FB494800F0E5FB494800F0E2FB08
:10066000464800F0DFFB454800F0DCFB414800F065
:10067000D9FB44A000F0D6FB0BE044A000F0D2FB75
:100680004FF47A7000F00EFF601E44B2601C00B997
:1006900006E04FF47A71684600F0ACF90028ECD11E
:1006A00000BF601C80B942A000F0BCFB4848406815
:1006B00000F07F40B0F1006F03D1454800F018FF13
:1006C00002E044A000F0AEFB53E048A000F0AAFB1B
:1006D000564800F0A7FB564800F0A4FB554800F030
:1006E000A1FB554800F09EFB54A000F09BFB00BF0F
:1006F0004FF47A71684600F07DF90028F8D1684619
:1007000000F090FB9DF80000312804D0322805D07D
:10071000332829D114E000F091FA29E024A000F058
:1007200081FB2B48406800F07F40B0F1006F03D19F
:10073000274800F0DDFE02E026A000F073FB17E082
:1007400000F07CFA1AA000F06DFB2148406800F030
:100750007F40B0F1006F03D11D4800F0C9FE02E0F8
:100760001CA000F05FFB03E03BA000F05BFB00BFC0
:1007700000BFAAE77C190008E418000898180008D0
:10078000301900080D0A0D0A000000005379737437
:10079000656D2077696C6C2062652073746172747A
:1007A000206166746572202564730D0D0D000000D4
:1007B0000D0A537461727420546865204E65772069
:1007C00050726F6772616D202E2E2E2E2E2E00001D
:1007D000000001080D0A496C6C6567616C20464C8D
:1007E0004153482041505021000000000D0A3D3D7A
:1007F0003D3D3D3D3D3D3D3D3D3D3D3D3D3D3D3D29
:10080000204D61696E204D656E75203D3D3D3D3D3D
:100810003D3D3D3D3D3D3D3D3D3D3D3D3D3D3D3D08
:100820003D3D3D3D3D3D3D0D0A0A000034170008A9
:1008300078170008BC17000800180008506C6561A4
:10084000736520456E74657220746865204E756D01
:100850006265723A000000000D0A496E76616C69AB
:1008600064204E756D6265722021203D3D3E20540E
:100870006865206E756D6265722073686F756C6453
:100880002062652065697468657220312C203220F1
:100890006F7220330D0A000000BFFEE770477047FB
:1008A00029B1064AD2690243044BDA6104E0034AE3
:1008B000D2698243014BDA617047000000100240A8
:1008C00029B1064A12690243044B1A6104E0034A43
:1008D00012698243014B1A61704700000010024008
:1008E00029B1064A92690243044B9A6104E0034A23
:1008F00092698243014B9A617047000000100240E8
:1009000029B1064AD2680243044BDA6004E0034A84
:10091000D2688243014BDA60704700000010024049
:1009200030B500210022002400232D4D6D6805F014
:100930000C0121B1042905D0082923D105E0294D56
:10094000056022E0274D05601FE0254D6D6805F428
:100950007012234D6D6805F48034022505EB924238
:100960001CB9214D554305600BE01D4D6D6805F424
:1009700000351DB11C4D5543056002E0194D55432E
:10098000056002E0174D056000BF00BF144D6D68A3
:1009900005F0F0010909154D6B5C0568DD40456007
:1009A0000F4D6D6805F4E061090A104D6B5C4568F8
:1009B000DD4085600A4D6D6805F46051C90A0B4D34
:1009C0006B5C4568DD40C560054D6D6805F44041D0
:1009D000890B074D6B5CC568B5FBF3F5056130BD50
:1009E0000010024000127A0000093D001C000020A7
:1009F0002C00002070B505460C4606E0284600F0A5
:100A0000E3F9012801D1002070BD201EA4F10104EA
:100A1000F4D1401EF8E72DE9F84304460E4691460E
:100A20000020306049466846FFF7E4FF18B14FF0F8
:100A3000FF30BDE8F8839DF80000182813D006DCCD
:100A4000012809D0022809D0042820D109E0412832
:100A50001AD061281BD118E080251BE04FF4806577
:100A600018E00020E5E749466846FFF7C3FF40B9B4
:100A70009DF80000182804D14FF0FF3030600020AE
:100A8000D7E74FF0FF30D4E700BF0120D1E74FF0A8
:100A9000FF30CEE700BF9DF800002070012709E07D
:100AA000E0194946FFF7A6FF10B14FF0FF30C0E74D
:100AB000781C87B2681D8742F2DB6178A07880F0ED
:100AC000FF00814202D04FF0FF30B2E72946E01C20
:100AD000FFF755FC8046281D215CE81C205C41EA9C
:100AE0000020404502D04FF0FF30A2E735600020E3
:100AF0009FE730B503460C461546002207E018462E
:100B000000F008F824F812009B1C501C82B2AA4284
:100B1000F5DB30BD01460888704700002DE9F05F25
:100B200080468A461746B8F1006F02D333488045A5
:100B300002D3FF20BDE8F09FFFF7A6FCA8F1006BF1
:100B40004FEADB25CBF34909C9F58064A74200DCF5
:100B50003C464DE04FF0006101EBC5204A142849A6
:100B6000FFF7C7FF00260BE009EB0600244931F828
:100B700010004FF6FF71884200D003E0701C86B26F
:100B8000A642F1DB00BFA6421BDA4FF0006101EB89
:100B9000C520FFF70FFC002608E03AF8160006EB28
:100BA0000901174A22F81100701C86B2A642F4DB34
:100BB0004FF0006101EBC5204A14114900F022F802
:100BC00004E022465146404600F01CF8A74200D1FE
:100BD0000FE06D1C4FF000090AEB440AA044381BDB
:100BE00087B2B7F5806F02DD4FF4806400E03C46C9
:100BF000B0E700BFFFF71EFC00209BE700000808DD
:100C0000340500202DE9F04105460E461746002424
:100C100007E036F814102846FFF716FCAD1C601CE0
:100C200084B2BC42F5DBBDE8F081704710B50446E4
:100C3000204600F0DBF8002010BD00003EB500208B
:100C400000900190029000241CA000F0EBF82A48CC
:100C500000F028FB04461E2000F024FC002C16DDCA
:100C6000264800F0DFF8264800F0DCF82146684608
:100C7000FFF7BAFC23A000F0D5F8684600F0D2F8E0
:100C800023A000F0CFF825A000F0CCF814E0601C01
:100C900018B928A000F0C6F80EE0A01C18B935A0BD
:100CA00000F0C0F808E0E01C18B939A000F0BAF86C
:100CB00002E03DA000F0B6F83EBD00005761697447
:100CC000696E6720666F72207468652066696C655E
:100CD00020746F2062652073656E74202E2E2E2086
:100CE0002870726573732027612720746F206162FA
:100CF0006F7274290A0D00003401002044180008A6
:100D0000340D00200A0D2053697A653A2000000056
:100D10002042797465730D0A000000002D2D2D2DE1
:100D20002D2D2D2D2D2D2D2D2D2D2D2D2D2D2D0A16
:100D3000000000000A0A0D54686520696D6167654E
:100D40002073697A65206973206869676865722015
:100D50007468616E2074686520616C6C6F7765647F
:100D6000207370616365206D656D6F7279210A0D66
:100D7000000000000A0A0D566572696669636174B5
:100D8000696F6E206661696C6564210A0D00000060
:100D90000D0A0A41626F727465642062792075736E
:100DA00065722E0A0D0000000A0D4661696C6564CB
:100DB00020746F20726563656976652074686520AC
:100DC00066696C65210A0D0010B5044620210648AD
:100DD00000F0CAF928B1044800F040FA2070012060
:100DE00010BD0020FCE700000048004010B504469C
:100DF0004FF400710948FFF7F3FB2146084800F063
:100E000032FA00BF4021064800F0AEF90028F9D0C0
:100E10004FF400710148FFF7E1FB10BD00100140E5
:100E20000048004010B5044603E02078FFF7DEFFDD
:100E3000641C20780028F8D110BD10B500F002F82D
:100E400010BD00000CB500200190009033480068F0
:100E500040F480303149086000BF3048006800F439
:100E6000003000900198401C0190009818B901983A
:100E7000B0F5A06FF1D12948006800F4003010B13E
:100E80000120009001E0002000900098012843D14B
:100E90002348006840F010002149086008460068B7
:100EA00020F0030008600846006840F00200086077
:100EB0001A48406819494860084640684860084632
:100EC000406840F4806048600846406820F47C1028
:100ED00048600846406840F4E810486008460068EA
:100EE00040F08070086000BF0C48006800F000709F
:100EF0000028F9D00948406820F0030007494860FD
:100F00000846406840F00200486000BF034840685F
:100F100000F00C000828F9D10CBD000000100240C0
:100F20000020024070B502460C4600210025002337
:100F30001078302843D15078782802D0507858283B
:100F40003DD1907808B9002070BD022130E0505C9E
:100F500010B9236001252DE0505C412802DB505C74
:100F600046280BDD505C612802DB505C662805DDFD
:100F7000505C302819DB505C392816DC505C302876
:100F800005DB505C392802DC505C30380AE0505CEC
:100F9000412805DB505C462802DC505C373801E014
:100FA000505C573800EB031301E0002502E0491CB8
:100FB0000B29CCD300BF0B2934D3002532E000210C
:100FC0002AE0505C10B92360012527E0505C6B28B3
:100FD00002D0505C4B2804D119B19B02236001253B
:100FE0001CE0505C6D2802D0505C4D2804D119B132
:100FF0001B052360012511E0505C302809DB505CA3
:10100000392806DC505C303803EB830600EB4603DE
:1010100001E0002502E0491C0B29D2D300BF0B29B7
:1010200000D3002528468FE7042808D14FF0E0219F
:10103000096941F004014FF0E022116107E04FF02F
:10104000E021096921F004014FF0E02211617047AD
:101050007047000010B51348006840F001001149C6
:10106000086008464068104908400E494860084634
:1010700000680E4908400B4908600846006820F4E3
:10108000802008600846406820F4FE0048604FF465
:101090001F008860FFF7D1FE4FF000600449086030
:1010A00010BD0000001002400000FFF8FFFFF6FE38
:1010B00008ED00E021B1828942F40052828104E00F
:1010C00082894DF6FF731A408281704710B504463D
:1010D0002048844209D101218803FFF711FC002137
:1010E0004FF48040FFF70CFC32E01B48844209D1EA
:1010F00001214804FFF7E4FB00214FF40030FFF723
:10110000DFFB25E01548844209D101218804FFF75F
:10111000D7FB00214FF48020FFF7D2FB18E01048E6
:10112000844209D10121C804FFF7CAFB00214FF412
:101130000020FFF7C5FB0BE00A48844208D10121DB
:101140000805FFF7BDFB00214FF48010FFF7B8FB47
:1011500010BD00000038014000440040004800403D
:10116000004C00400050004002460020B1F5007FD6
:1011700000D100BF13880B400BB1012000E000201C
:10118000704700002DE9F04786B005460E46002462
:10119000A24600BFA1460027B08900B100BF2F467C
:1011A0002C8A4CF6FF700440F08804432C82AC89F2
:1011B0004EF6F3100440B088318908437189084322
:1011C0000443AC81AC8A4FF6FF400440B08904432D
:1011D000AC8201A8FFF7A4FB1F48874202D1DDF8CB
:1011E00010A001E0DDF80CA0A88900F4004040B197
:1011F0000AEBCA0000EB0A1031684900B0FBF1F8B5
:1012000007E00AEBCA0000EB0A1031688900B0FB66
:10121000F1F86420B8FBF0F004012009642101FB1F
:101220001089A88900F4004040B1322000EBC900C9
:10123000B0FBF1F000F00700044308E0322000EBBF
:1012400009106421B0FBF1F000F00F0004432C8181
:1012500006B0BDE8F08700000038014001468888EC
:10126000C0F308007047C1F308028280704710B5D0
:1012700003460C46194644F4807200BF49005200F0
:1012800002F4807000B1491C01F4803010B141F2C9
:101290002100414002F480300028EFD088B210BD18
:1012A00000BFFEE72DE9F04FADF2344D06460020B9
:1012B0000290DFF8A4A105908146039000BF0027AB
:1012C00000200490B04600BF4FF4801206A90BA87E
:1012D000FFF7A1FB10B101287ED191E04FF000098A
:1012E0000698B0F1FF3F01D070B907E00620FFF784
:1012F0009DFC00200DF2344DBDE8F08F0620FFF775
:1013000095FC0120049079E09DF82D00F9B2884207
:1013100003D01520FFF78AFC70E0002F48D19DF81C
:101320002F0000283DD000250DF12F0405E014F812
:10133000012B28466D1C49490A54207808B1FF2D1D
:10134000F5DD002228466D1C44490A540025641C22
:1013500005E014F8012B28466D1C07A90A542078D3
:10136000202801D00F2DF4DB002228466D1C07A990
:101370000A5402A907A8FFF7D5FD0298B0F1031F90
:1013800008DB1820FFF752FC1820FFF74FFC4FF046
:10139000FF30AFE70620FFF749FC4320FFF746FC8C
:1013A00029E00620FFF742FC01200490059025E08B
:1013B0000DF12F014046069AFEF72CFFB346069822
:1013C00080B2019000EBD070421059465046FFF7B2
:1013D000A5FB38B9069800E01BE082440620FFF721
:1013E00025FC08E01820FFF721FC1820FFF71EFC61
:1013F0006FF001007EE77F1C0120039000BF1CE01E
:101400001820FFF713FC1820FFF710FC6FF0020004
:1014100070E70398002801DD09F10109B9F1050F12
:1014200007DD1820FFF702FC1820FFF7FFFB002064
:1014300060E74320FFF7FAFB00BF00BF04980028D5
:101440003FF442AF00BF00BF059800283FF437AF1C
:1014500000BF00BF02984DE700000108340D0020D6
:1014600010B56FF00400FFF7DFFD0A4800680A4975
:10147000B0FBF1F0094908700846007800EB400124
:10148000C1EBC0104FF6FF7101EAC00004490880AB
:1014900010BD00000000002000127A00180000209B
:1014A0001A0000200146114A12884A434FF0E023F7
:1014B0005A6100229A611A46126942F001021A61C9
:1014C00000BF4FF0E022106900F001021AB100F4F1
:1014D0008032002AF5D04FF0E022126922F001029A
:1014E0004FF0E0231A6100229A6170471A00002031
:1014F00010B50446206807490840B0F1005F08D1E4
:101500006068054908602068FEF760FE02480068D0
:10151000804710BD0000FE2F140000201FB50020E2
:101520000190029003900824009000BFFFF798FFFD
:101530004FF4E13000F0A2F8012234493448FFF7BB
:10154000D8FA3248008845F2555188420AD13148CC
:10155000406800F07F40B0F1006F54D12D48FFF794
:10156000C7FF50E0294800884AF6AA21884248D19E
:1015700029A0FFF757FC15E0214601A8FFF734F832
:1015800027A0FFF74FFC01A8FFF74CFC2BA0FFF7AB
:1015900049FC4FF47A70FFF785FF601E44B2601C6F
:1015A00000B906E04FF47A716846FFF723FA002885
:1015B000E2D100BF601C80B922A0FFF733FC1548C0
:1015C000406800F07F40B0F1006F03D11148FFF791
:1015D0008FFF02E023A0FFF725FCFFF72FFB19A0E8
:1015E000FFF720FC0B48406800F07F40B0F1006F2F
:1015F00003D10848FFF77CFF05E01AA0FFF712FCB3
:1016000001E0FFF71DF800BFFEE7000030000020FA
:1016100000FC0008000001080D0A0D0A000000008F
:1016200053797374656D2077696C6C2062652073E3
:10163000746172742061667465722000730D0D0D03
:10164000000000000D0A5374617274205468652014
:101650004E65772050726F6772616D202E2E2E2E90
:101660002E2E00000D0A496C6C6567616C20464C9B
:1016700041534820415050210000000010B586B071
:10168000044601211820FFF72BF901218804FFF7F8
:1016900007F94FF48060ADF8140018208DF817009A
:1016A00003208DF8160005A91F48FEF70CFF4FF424
:1016B0000060ADF8140004208DF8170003208DF8A9
:1016C000160005A91848FEF7FEFE4FF40070ADF8AD
:1016D000140010208DF8170003208DF8160005A9BE
:1016E0001248FEF7F0FE4FF400711048FEF776FF47
:1016F0000F48FFF7EBFC01940020ADF80800ADF8AF
:101700000A00ADF80C000C20ADF80E000020ADF87A
:10171000100001A90648FFF735FD01210448FFF735
:10172000C9FC06B010BD0000000C014000100140D3
:10173000004800402020446F776E6C6F6164204940
:101740006D61676520546F2074686520496E74650B
:10175000726E616C20466C617368202D2D2D2D2DCD
:101760002D2D2D2D2D2D2D2D2D2D2D2D2D2D2D20B6
:10177000310D0A0A00000000202045786563757469
:101780006520546865204E65772050726F677261DE
:101790006D202D2D2D2D2D2D2D2D2D2D2D2D2D2D46
:1017A0002D2D2D2D2D2D2D2D2D2D2D2D2D2D2D2D69
:1017B0002D2D2D20320D0A0A000000002020417539
:1017C000746F2055706461746520415050202D2D38
:1017D0002D2D2D2D2D2D2D2D2D2D2D2D2D2D2D2D39
:1017E0002D2D2D2D2D2D2D2D2D2D2D2D2D2D2D2D29
:1017F0002D2D2D2D2D2D2D20330D0A0A000000003A
:101800003D3D3D3D3D3D3D3D3D3D3D3D3D3D3D3D08
:101810003D3D3D3D3D3D3D3D3D3D3D3D3D3D3D3DF8
:101820003D3D3D3D3D3D3D3D3D3D3D3D3D3D3D3DE8
:101830003D3D3D3D3D3D3D3D3D3D3D3D3D0D0A0A6E
:10184000000000000A0A0D2050726F6772616D6D12
:10185000696E6720436F6D706C65746564205375A5
:10186000636365737366756C6C79210A0D2D2D2D7C
:101870002D2D2D2D2D2D2D2D2D2D2D2D2D2D2D2D98
:101880002D2D2D2D2D2D2D2D2D2D2D2D2D0D0A20D8
:101890004E616D653A2000000D0A3D202020202079
:1018A0002020202020202020202020202020202038
:1018B0002020202020202020202020202020202028
:1018C0002020202020202020202020202020202018
:1018D0002020202020202020202020202020203DEB
:1018E000000000000D0A3D20202020202020202084
:1018F0002020202020202020202020284329204193
:10190000582D454E4420202020202020202020201B
:1019100020202020202020202020202020202020C7
:1019200020202020202020202020203D000000001A
:101930000D0A3D202020496E2D4170706C69636155
:1019400074696F6E2050726F6772616D6D696E673A
:10195000204170706C69636174696F6E2020285635
:10196000657273696F6E20312E302E302920202051
:10197000202020202020203D000000000D0A3D3DB9
:101980003D3D3D3D3D3D3D3D3D3D3D3D3D3D3D3D87
:101990003D3D3D3D3D3D3D3D3D3D3D3D3D3D3D3D77
:1019A0003D3D3D3D3D3D3D3D3D3D3D3D3D3D3D3D67
:1019B0003D3D3D3D3D3D3D3D3D3D3D3D3D3D3D3D57
:1019C0003D3D3D3D00000000E819000800000020FA
:1019D000300000006C010008181A000830000020D8
:1019E000681400008801000800A24A0400000000FA
:1019F00000000000010203040607080900000000BF
:101A000000000000000000000102030401020304C2
:081A100006070809020406089C
:04000005080001D519
:00000001FF
