:020000040800F2
:100000009813002081020008891E0008951B000833
:10001000851E00082F19000869270008000000004D
:10002000000000000000000000000000BF210008E8
:1000300067190008000000008B1E0008B5250008A5
:100040009B0200089B0200089B0200089B0200081C
:100050009B0200089B0200089B0200089B0200080C
:100060009B0200089B0200089B0200089B020008FC
:100070009B0200089B0200089B0200089B020008EC
:100080009B0200089B0200089B0200089B020008DC
:100090009B0200089B0200089B0200089B020008CC
:1000A0009B0200089B0200089B0200089B020008BC
:1000B0009B0200089B0200089B0200089B020008AC
:1000C0009B0200089B0200089B0200089B0200089C
:1000D0009B0200089B0200089B0200089B0200088C
:1000E0009B0200089B0200089B0200089B0200087C
:1000F0009B0200089B0200089B0200089B0200086C
:100100009B0200089B0200089B0200089B0200085B
:100110009B0200089B0200089B0200089B0200084B
:100120009B0200089B0200089B0200089B0200083B
:1001300000F002F800F090F80AA090E8000C824469
:100140008344AAF10107DA4501D100F085F8AFF246
:10015000090EBAE80F0013F0010F18BFFB1A43F0A5
:1001600001031847782D0000982D0000103A24BF95
:1001700078C878C1FAD8520724BF30C830C144BF0C
:1001800004680C607047000000230024002500264E
:10019000103A28BF78C1FBD8520728BF30C148BFEA
:1001A0000B6070476E2900F0A982702900F0DF8390
:1001B000662902F0B584652902F0B284672902F04D
:1001C000AF846129AFF3008003681B0A28BF41F0A8
:1001D0008001692900F08E80642900F08B807529E8
:1001E00000F088806F2900F06C83782900F0AB83E1
:1001F000E92900F00783E42900F00483F52900F0E1
:100200000183EF2900F06983F82900F0AA830368CD
:10021000DB0928BF41F08001632900F0598673296A
:1002200000F05E86E32900F06986F32900F06E860F
:10023000002070471FB500F0BFFE04000020002121
:1002400002F058FC401C60600020002102F03CFCE1
:10025000E0601FBD10B510BD00F080FE1146FFF735
:10026000E9FF02F0EBFB00F059FF03B4FFF7F2FFE8
:1002700003BC02F074FB000080F3088870470000A4
:100280000948804709480047FEE7FEE7FEE7FEE72A
:10029000FEE7FEE7FEE7FEE7FEE7FEE70448054966
:1002A000054A064B70470000B925000831010008D7
:1002B000980D002098130020980F0020980F002020
:1002C000704700000FB4044910B503AA029800F06B
:1002D00029FA10BC5DF814FB1C0000200FB404497F
:1002E00010B503AA029800F01DFA10BC5DF814FBCB
:1002F0001C0000202DE9F0410646002410687529F5
:10030000314616A510D000F065F9002802DA404207
:1003100013A507E031688A0701D512A502E0490755
:1003200004D511A5012401E000F05DF900210A22A5
:1003300006F1240709E0B0FBF2FCB0FBF2F302FB8C
:100340001C00303078541846491C0028F3D123464D
:100350002A463046BDE8F04100F077B900000000C1
:100360002D0000002B000000200000002DE9F05FB0
:10037000894604464FF0000ADFF874B1FB44C0F828
:1003800020A02046E1688847002874D0252806D0A0
:10039000D4E901219047206A401C2062F1E7002641
:1003A0005F462046E16888472028054607DB312D57
:1003B00005D2781910F8200C08B10643F1E7B00710
:1003C00001D526F00406C4F81CA00027C4F818A024
:1003D0002A2D09D0284602F0BBFA38B304EB87086F
:1003E000303DC8F8185019E059F8041B204604EBBA
:1003F00087029161E1688847012F054618D1E069BD
:10040000002820DA26F020061DE0D8F8180000EBBE
:10041000800005EB40003038C8F818002046E1683D
:100420008847054602F094FA0028EED1012F0AD041
:100430002E2D08D12046E16888477F1C0546022FF3
:1004400046F02006C4DBA069002803DA404246F0EB
:100450000106A061F00701D026F010066C2D0BD02C
:10046000682D09D04C2D39D06A2D35D0742D35D05A
:100470007A2D33D016E038E0E1682F4620468847D1
:10048000B842054609D16C2F26D04FF48060E16850
:10049000064320468847054604E06C2F1AD04FF4E7
:1004A000807006430DB3A5F14100192802D820350C
:1004B00046F400664A462946204626604E46FFF727
:1004C00071FE80B101280BD0F61D26F0070000F167
:1004D000080956E74020E4E78020D8E70020D6E767
:1004E00006F104094DE7284652E7206ABDE8F09F6F
:1004F000A4270000032A40F2308010F0030C00F023
:10050000158011F8013BBCF1020F624498BF11F84D
:1005100001CB00F8013B38BF11F8013BA2F1040206
:1005200098BF00F801CB38BF00F8013B11F003037E
:1005300000F02882083AC0F0088051F8043B083ADD
:1005400051F804CBA0E80810F5E7121D5CBF51F884
:10055000043B40F8043BAFF30080D20724BF11F8FE
:10056000013B11F801CB48BF11F8012B24BF00F863
:10057000013B00F801CB48BF00F8012B70477047E2
:1005800070477047704770B5044685690068C106BA
:1005900001D5302600E02026C00707D070BDD4E981
:1005A000012130469047206A401C20626D1EF6D51E
:1005B00070BD70B5044685690078C00707D170BD6D
:1005C000D4E9012120209047206A401C20626D1E42
:1005D000F6D570BD09684A0501D540B27047C90516
:1005E000FCD500B2704709684A0501D5C0B2704712
:1005F000C905FCD580B2704770B50C460546012A86
:1006000005D02878800600D5EA69002302E001239E
:1006100005E05B1C934202D2E05C0028F9D1A86996
:10062000E618C01AA861286A184428622846FFF70D
:10063000AAFF04E0D5E9012114F8010B9047B44268
:10064000F8D32846FFF7B5FF70BD2DE9F0470D46FA
:1006500099469246044600F124080168880604D5AC
:10066000E06921F01001216000E00120A84201DDD5
:10067000471B00E00027A1697A1902EB0900081A5C
:10068000A0612078C00602D42046FFF77CFF002638
:1006900008E0D4E901211AF806009047206A401CBE
:1006A000761C20624E45F4DB2078C0060AD5204631
:1006B000FFF769FF06E0D4E9012130209047206A66
:1006C000401C2062381EA7F10107F4DC07E0D4E9E2
:1006D000012118F805009047206A401C2062281E5E
:1006E000A5F10105F3DC2046FFF763FF2078000643
:1006F00002D50220BDE8F0870120FBE711680268FF
:10070000006A530501D508700AE0D30501D50880B9
:1007100006E0130603D5C217C1E9000200E0086035
:1007200001207047074B70B50D467B4400F0B3FBCA
:100730000446284600F0EEFB10B14FF0FF3070BDCC
:10074000204670BDC72200002DE9FF5F15468A468E
:100750000446DFF8AC80F8440027D8E900103E4694
:10076000CDE9001010E03AF816106A4602A800F031
:10077000D5FB411C07D02178890603D5E2693918D9
:1007800091420DD80744761C2078800602D5E06996
:10079000B84205DDAE42E6DB3AF816000028E2D1A9
:1007A000A069C01BA0612046FFF7EDFED8E900104C
:1007B000CDE90010002017E03AF818106A4602A8A8
:1007C00000F0ACFBB0F1FF3F81460BD000250DF1EE
:1007D000080B05E0D4E901211BF8050090476D1CCA
:1007E0004D45F7D308F10100B0428046E4DB206AB2
:1007F000384420622046FFF7DCFEBDE8FF9F000082
:10080000DE2300002DE9F0418046D21D22F00702D0
:100810000025D2E90002F52915A614D0011E72F1B7
:10082000000106DA0023D0EB030063EB020211A6FD
:1008300008E0D8F800108B0701D50FA602E04907A1
:1008400001D50EA601251146002408F1240704E075
:1008500000F0CAF830323A55641C50EA0102F7D170
:100860002B46324621464046BDE8F041FFF7EDBE3B
:10087000000000002D0000002B0000002000000000
:1008800030B4002100F1240408E002F00705D2088A
:10089000303542EA4372DB086554491C52EA0305CD
:1008A000F3D10468002310A2250707D5A40600D4BD
:1008B00021B1C46901230DA2641EC46130BCFFF7DD
:1008C000C4BE10B5044621461068FFF78CFE0246F0
:1008D0002046BDE810400023D2E7D21D22F00701D8
:1008E000D1E90023CCE70000000000003000000048
:1008F000F0B40D460188090502D5214C7C4402E084
:100900001F4C7C440E34002100F1240608E002F064
:100910000F071209E75D42EA03721B097754491C6D
:1009200052EA0307F3D102780023120704D5702D91
:1009300006D009B1022311342246F0BCFFF785BE70
:1009400001231034F8E770B504460D4621461068BF
:10095000FFF749FE024629462046BDE870400023C5
:10096000C6E7D21D22F00703D3E90023C0E70368DE
:10097000126843F0200303600823C3610023B7E734
:100980004022000010B5203AC0F00B80B1E81850AA
:10099000203AA0E81850B1E81850A0E81850BFF469
:1009A000F5AF5FEA027C24BFB1E81850A0E8185008
:1009B00044BF18C918C0BDE810405FEA827C24BF5C
:1009C00051F8043B40F8043B08BF7047D20728BFEA
:1009D00031F8023B48BF11F8012B28BF20F8023B39
:1009E00048BF00F8012B704730B5B0F10A024FEA5A
:1009F000900E71F100034EEA817EB0EB0E0061EBC8
:100A000091014FEA101E4EEA017E10EB0E0041EB01
:100A100011114FEA102E4EEA016E10EB0E0041EB61
:100A200011214FEA104E4EEA014E10EB0E0041EB41
:100A30001141401841F100014FEAD00040EA4170F5
:100A40004FEAD10110EB80054FEA810444EA90742B
:100A500044EB01046D1944EB0404521BA3414FF015
:100A6000000348BF0A3200D530BD401C41F10001EF
:100A700030BD70472DE9FF4F0C461E464FF0FF3743
:100A80008BB0D2E90001DDF860800A908A46C1F39C
:100A90000A5505B93D46002108464FF00000BAF15D
:100AA000000F00F4400005DA00EB80004FF4400135
:100AB00001EA50004FEA9059B9F1010F00DDB94643
:100AC0000A9850EA4A000ED044F61050A5F2FF35BD
:100AD00045432F14B8F1000F1ED07542291E1EDDAC
:100AE000C9F100021CE0B8F1010F4FF0000001D085
:100AF000302103E0F24305E02154401CB042FBDB0F
:100B000030460022002121540B99C1F80880C1E928
:100B100000200FB0BDE8F08FBD1B6D1CDEE74A461C
:100B200000DA694206A800F08BFA06AB93E80700EA
:100B300003AB83E8070050460A9900F03DFB8DE8BF
:100B40000700A0F500501F3800900398002D09DD24
:100B500042F21F014A46084403A90390684600F088
:100B60009CFD08E0A0F500504A461F3803A90390F9
:100B7000684600F0A6FD8DE807000004000C03D0D5
:100B80004FF0FF30410800E01046B8F1000F03D0ED
:100B90000022009215461EE0751E05D4FFF724FFC3
:100BA000303262556D1EF9D5B3460122084302D09A
:100BB00000227F1C04E02078302801D100227F1E13
:100BC000002A099786D01DE0112D07DAFFF70CFFE8
:100BD000303262556D1C50EA0102F5D1084302D053
:100BE0000098C8B10EE00021681E05E0235C625C3D
:100BF00063542254401E491C8142F7DBAB46A81BBC
:100C0000401E0990002004F80B000B98099AC0F8C8
:100C10000880C0E9002B7CE711264FF0000859E757
:100C20002DE9F04F88460446D21D22F0070191B00D
:100C3000D1E90001CDE90A0101F076FE02460B98E8
:100C4000C00F01D02D2007E02068810701D52B209F
:100C500002E0202101EAC000032A099001D0072AFE
:100C600005DB03464146204600F0AAF90BE1207857
:100C7000800601D5E06900E00620B8F1650F8146E5
:100C800006D0B8F1660F18D0B8F1670F70D131E017
:100C90000020B9F1110F009001DB112301E009F1EF
:100CA00001030AAA01A90CA8FFF7E4FEDDE90C7014
:100CB000002609F10105834647E001204B460090DC
:100CC0004FF000470AAA01A90CA8FFF7D3FEDDE9FF
:100CD0000DB00C995D46002610B909F101000D1800
:100CE000B9EB050003D4C0F1FF3609F10105A5EB0E
:100CF00009002BE0B9F1010F01DA4FF001090020E2
:100D0000B9F1110F0090484601DD112300E00346C0
:100D10000AAA01A90CA8FFF7ADFEDDE90C704D464B
:100D200000268346207800070AD4AB4500DA5D46EA
:100D300001A8012D04DD411911F8011C302907D04B
:100D40004F4502DA17F1040F04DA012082460FE062
:100D50006D1EEEE7002F02DCED1B3E4403E0781C25
:100D6000A84200DD7D1CB81B00F1010A4FF00047CE
:100D70002078000703D4AA4501DB4FF0FF3A002199
:100D8000B7F1004F0DF143088DF8431024D0022035
:100D90002B23002F01DA7F422D230A21021EA0F10E
:100DA000010000DC5FB197FBF1FC97FBF1F201FB66
:100DB0001C7C17460CF1300C08F801CDEEE7A8F1C9
:100DC000010003702188090501D5452100E0652156
:100DD000A0F1010800F8011C09980FA9A1EB080770
:100DE000FF1D00B10120411901EBEA70A1693844EF
:100DF000081A401EA0612078C00602D42046FFF7E2
:100E0000C2FB099828B1D4E901219047206A401C0F
:100E100020622078C00622D52046FFF7B4FB1EE0F2
:100E2000002E04DBB34502DD01A8805D00E0302028
:100E3000D4E901219047206A401C2062761CAAF167
:100E400001005FEA000A0AD100F0B6F8C068016844
:100E5000405CD4E901219047206A401C2062281E92
:100E6000A5F10105DCDC07E0D4E9012118F8010B4C
:100E70009047206A401C2062381EA7F10107F3DC6E
:100E80002046FFF796FB032011B043E601694A1C98
:100E900002610878704700B58FB0CDE901310021BB
:100EA000059105497944CDE9031011466846FFF7DD
:100EB0005DFA0FB000BD0000E5FFFFFF10B543690C
:100EC00013B1AFF3008001E0FFF796FB012010BDE6
:100ED000127800F124010A7000224A700122EDE725
:100EE00011684FF0FF32E9E710B5436913B1AFF372
:100EF000008001E0FFF728FC012010BD128800F1FE
:100F0000240182840022C2840122EDE711684FF09F
:100F1000FF32E9E7007B00F08000704770B51646AD
:100F20000C46054600F040F8036893F801010128DB
:100F300006D0FF2C0FD8185D68B101202C7070BD51
:100F4000D3F807013246214603F20713034428462B
:100F5000BDE8704018474FF0FF3070BD754600F097
:100F6000E7F8AE4605006946534620F0070085467F
:100F700018B020B5FFF792F9BDE820404FF0000609
:100F80004FF000074FF000084FF0000B21F0070171
:100F9000AC46ACE8C009ACE8C009ACE8C009ACE8B4
:100FA000C0098D467047000010B500F005F8001D1F
:100FB00010BD00BF411B000000487047580D0020C5
:100FC0002DE9F0411F46044603260168072A01F473
:100FD000006004DB08B116A505E016A503E008B122
:100FE00015A500E015A521F010002060A069C01E25
:100FF000A0610FB1401EA0612046FFF7C4FA4FB1B7
:10100000D4E9012138469047206A401C2062C01C68
:10101000206206E0206AFAE7D4E9012115F8010B05
:101020009047761EF8D22046FFF7C3FABDE8F0815C
:101030004E414E006E616E00494E4600696E66007C
:101040002DE9F047814616468AB0334878440DC8EA
:101050008DE80D0030487844801C03AC0DC884E84E
:101060000D0041F69B300844372190FBF1F290FBD4
:10107000F1F5A5F1800501FB12041B3C02D5644289
:10108000012000E00020DFF890A080460027FA440D
:10109000AAF1BE0A0DE0E00709D03246684607EB28
:1010A00047010AEB810100F00CFB8DE8070064109A
:1010B0007F1C002CEFD1184F7F44AC3F18E0E807AD
:1010C00014D007EB04100DF1180A90E80E008AE81E
:1010D0000E00C068F04201D198190890324606A966
:1010E00003A800F0EEFA03AB83E807006D10641C60
:1010F000002DE4D132466946B8F1000F03A802D0B2
:1011000000F0CBFA01E000F0DCFAC9E90001C9F80F
:1011100008200AB0BDE8F087941B000010B5044613
:10112000AFF300802046BDE81040FFF79EB80000F6
:1011300000487047380D00204FF0013C50F8042B58
:1011400051F8043B9A4221D1A2EB0C03934313EADA
:10115000CC1317D150F8042B51F8043B9A4215D107
:10116000A2EB0C03934313EACC130BD150F8042BDE
:1011700051F8043B9A4209D1A2EB0C03934313EAC2
:10118000CC13DBD04FF00000704700BFD01A01BA7B
:10119000B1FA81F101F0180122FA01F0CB40C1F15E
:1011A0002001DBB2C0B2C01A2CFA01F3D11A91436C
:1011B00011EAC311E6D170475FEA400C08BF91F015
:1011C000000F4FEA8C234FEAC12243EA51514FEA04
:1011D0001C5018BF00F5F0404FEA300018BF41F036
:1011E00000415FEA6C5C00F02980BCF1FF3F08BF62
:1011F00040F080407047130C06BF12044FF0100CF3
:101200004FF0000C130E04BF12020CF1080C130F68
:1012100004BF12010CF1040C930F04BF92000CF1F7
:10122000020CD30F04BF52000CF1010C11464FF019
:101230000002A0F11F00A0EB0C00704711F0004F5E
:1012400008BF704731F000413FF4D5AF0B0C06BF2B
:1012500009044FF0100C4FF0000C0B0E04BF0902F4
:101260000CF1080C0B0F04BF09010CF1040C8B0FDF
:1012700004BF89000CF1020CCB0F04BF49000CF134
:10128000010CCCF12003A0EB0C0022FA03F302FACC
:101290000CF241EA030100F10100704720F07F4C9D
:1012A00080EA030023F07F47ACEB070303F57C5390
:1012B00000F0004003F1FF032DE980494FEA154B90
:1012C00009B44FEA144325EA0B4E24EA03480FF20F
:1012D000042606EB132749083E785FEA320203FB37
:1012E0000667C7F5000707FB06F64FEA54374FEAD3
:1012F000D64606F1020607FB066CCCF1005C4FEA0D
:101300001C472CEA074C07FB06F40CFB06F504EB24
:1013100015464FEA961634BF00204FF000404FEAC2
:10132000D13706FB07FC4FEA1C4C0CFB0BF7D21B1A
:1013300003FB0CF761EB07010CFB0EF7B0EB07406A
:1013400072EB17420CFB08F734BFA2EB0742B2EB7B
:10135000074261EB17414FEA0C444FEA910706FB45
:1013600007FC4FEA1C4C0CFB0BF7B0EBC74072EBD1
:10137000573203FB0CF734BFA2EBC742B2EBC742B4
:1013800061EB57310CFB0EF7B0EBC70072EB5772F5
:101390000CFB08F734BFA2EBC702B2EBC70261EB4C
:1013A0005771039F4FEA816141EA921104EBCC042B
:1013B0004FEAD1374FEA826206FB07FC42EA9012FD
:1013C0004FEA80604FEA1C4C0CFB0BF7D21B03FB6F
:1013D0000CF761EB07010CFB0EF7B0EB074072EB6B
:1013E00017420CFB08F734BFA2EB0742B2EB0742EF
:1013F00061EB17414FEA8C554FEA910704EB9C24AF
:1014000006FB07FC4FEA1C4C0CFB0BF7B0EBC7408C
:1014100072EB573203FB0CF734BFA2EBC742B2EBBF
:10142000C74261EB57310CFB0EF7B0EBC70072EB14
:1014300057720CFB08F734BFA2EBC702B2EBC7022E
:1014400061EB577115EB4C254FEA816141EA92112E
:101450004FEA82624FEAD13742EA901206FB07FC5C
:1014600044F100044FEA80604FEA1C4C0CFB0BF780
:10147000D21B03FB0CF761EB07010CFB0EF7B0EB83
:10148000074072EB17420CFB08F734BFA2EB074290
:10149000B2EB074261EB174115EB1C154FEA8131A6
:1014A00041EA92414FEA823242EA90424FEA80306A
:1014B0004FEA0C7644F1000448EA03434EEA0B4835
:1014C0004FF0000EB2EB080C71EB030724BF62462D
:1014D00039464EEB0E0E4FF0000B001852414941B9
:1014E0004BEB0B0BB2EB080C71EB03077BF1000B22
:1014F00024BF624639464EEB0E0E4FF0000B00182B
:10150000524149414BEB0B0BB2EB080C71EB03075B
:101510007BF1000B24BF624639464EEB0E0E51EABA
:10152000020718BF46F0010616EB0E7655F10002D1
:1015300054F1000103D5BDE88901BDE80088BDE88C
:101540008901BDE80048B619524141EB0101A3F100
:101550000103704780807F7E7D7C7B7A7978777607
:1015600076757473727171706F6E6E6D6C6C6B6A80
:101570006A6968686766666564646363626161601E
:10158000605F5F5E5E5D5D5C5C5B5B5A5A5959589B
:101590005857575656555555545453535252525105
:1015A000515050504F4F4F4E4E4D4D4D4C4C4C4B5B
:1015B0004B4B4A4A4A4949494848484747474746A2
:1015C00046464545454444444443434343424242DE
:1015D00042414141002B26D4770021D01CB54FEA6F
:1015E000370703B44FF010004FF010014FF0000028
:1015F0000FBCBDE810400BF1010BBBF1010F08BFA0
:101600005FEA170722BF12F1010211F101014FF049
:10161000004143F1000300F0004043EA000070473E
:10162000F9D35708DAE746EA064613F1400F4FEAC6
:1016300016461FDD13F1200FDFBF16430A460021B7
:1016400020335B42C8D0C3F1200746EA064602FABF
:1016500007F74FEA164646EA0706C3F1200722FAC3
:1016600003F201FA07F721FA03F14FF0000342EA0F
:101670000702B1E746EA020646EA06464FEA164680
:1016800046EA0106BCBF46EA0646360C4FF00003A8
:101690004FF000024FF000019EE72DE9C04893464D
:1016A00030B491E8380007C831EA400C48BF34EA4A
:1016B000430C03D5FFF7F2FDFFF78CFFF0BCBDE84C
:1016C00000882DE9C048934630B491E8380007C837
:1016D00010F0804F08BF13F0804F03D100F005F8E1
:1016E000FFF778FFF0BCBDE8008820F07F4780EA74
:1016F000030023F07F4C07EB0C03A3F57C5300F0B1
:101700000040A3F1FE0392F0000F00F0B38095F0CB
:10171000000F00F077802DE901494FEA11404FEAB0
:10172000144621EA004800FB06FC24EA064708FBB1
:1017300006F607FB08F800FB07F718EB06484CEB2A
:10174000164C4FEA124B18EB07484FEA15464CEB84
:10175000174022EA0B4E0BFB06FC25EA06470EFB60
:1017600006F607FB0EFE0BFB07F71EEB064E4CEBD7
:10177000164C4FF000061EEB074E4CEB174B18EBC8
:101780000B0840F1000018EB0E0B58EB000840F17D
:1017900000008F1A4FF000013CBFC943661B14BF05
:1017A000B5EB040C00213CBFC943F61B4FEA1744BC
:1017B0004EEA8E0E27EA04454FEA1C4704FB0762F7
:1017C0002CEA074C05FB07F70CFB05F604FB0CFCA9
:1017D00016EB074642EB174216EB0C4642EB1C4257
:1017E0001BEB060658EB0202414146EA9E0601D574
:1017F000BDE80189B619524141EB0101A3F1010392
:10180000BDE801894FEA14454FEA114724EA05462D
:1018100021EA074C05FB07F406FB07F70CFB06F172
:1018200005FB0CFC11EB074144EB17444FEA124750
:1018300011EB0C4144EB1C4422EA074C05FB07F278
:1018400006FB07F70CFB06F605FB0CFC16EB074640
:1018500042EB174216EB0C4642EB1C456A1854F15A
:10186000000148BF7047B619524141EB0101A3F195
:101870000103704795F0000F37D04FEA11424FEA4D
:10188000144721EA024624EA074C02FB07F106FB53
:1018900007F70CFB06F402FB0CFC14EB074441EBCE
:1018A00017414FEA154714EB0C4441EB1C4125EA64
:1018B000074C02FB07F506FB07F70CFB06F602FBDD
:1018C0000CFC16EB074645EB174516EB0C4645EBB3
:1018D0001C42121951F1000148BF7047B61952411C
:1018E00041EB0101A3F1010370474FEA14454FEAB0
:1018F000114724EA054621EA074C05FB07F106FBE0
:1019000007F70CFB06F24FF0000605FB0CFC12EB90
:10191000074241EB174112EB0C4251EB1C4148BF0F
:101920007047921841EB0101A3F10103704700BF1A
:10193000FEE7F0B505460E460024AF1905E015F8A0
:10194000011BA0B200F0F7FE0446BD42F7D3A0B2DF
:10195000002100F0F0FE04462046002100F0EBFEDE
:1019600004462046F0BD704730B5044604254FF4C8
:10197000302000F06FF80546042D17D10C4800699F
:1019800040F002000A49086108464461006940F0DD
:10199000400008614FF4302000F05CF80546044830
:1019A000006941F6FD71084001490861284630BDD3
:1019B0000020024004200B49C96801F0010109B16F
:1019C00001200EE00749C96801F0040109B10220B5
:1019D00007E00449C96801F0100109B1032000E0E3
:1019E00004207047002002400348006940F0800056
:1019F00001490861704700000020024070B50446AC
:101A00000D460426F00200F025F80646042E11D1FA
:101A10000948006940F00100074908612580F0028B
:101A200000F018F806460448006941F6FE710840C7
:101A300001490861304670BD002002400248034958
:101A40004860034848607047230167450020024012
:101A5000AB89EFCD00B502460423FFF7ABFF034689
:101A600003E0FFF7A7FF0346521E012B01D1002A16
:101A7000F7D102B90523184600BD2DE9F041024611
:101A800000250026002000230024002791F803C031
:101A90000CF00F0591F803C00CF0100CBCF1000F16
:101AA00003D091F802C04CEA050591F800C0BCF1E2
:101AB000000F31D0146800202BE04FF0010C0CFA1D
:101AC00000F3B1F800C00CEA03069E4220D1830067
:101AD0004FF00F0C0CFA03F7BC4305FA03FC4CEA79
:101AE000040491F803C0BCF1280F06D14FF0010C9B
:101AF0000CFA00FCC2F814C00AE091F803C0BCF173
:101B0000480F05D14FF0010C0CFA00FCC2F810C0D0
:101B1000401C0828D1D31460B1F800C0BCF1FF0FFD
:101B200034DD546800202EE000F1080C4FF001086D
:101B300008FA0CF3B1F800C00CEA03069E4221D16A
:101B400083004FF00F0C0CFA03F7BC4305FA03FCBB
:101B50004CEA040491F803C0BCF1280F05D100F150
:101B6000080C08FA0CF8C2F8148091F803C0BCF114
:101B7000480F07D100F1080C4FF0010808FA0CF8E3
:101B8000C2F81080401C0828CED35460BDE8F08114
:101B90000161704700BFFEE7F0B5144A002500243C
:101BA000002320E0B1FBF2F6303606F0FF0C2E46A3
:101BB0006D1C00F806C0B1FBF2F602FB16110A26F6
:101BC000B2FBF6F26E1E865D302E01D1012600E0DA
:101BD00000260CB9012700E000273E400EB1002589
:101BE00000E0641C5B1C0A2BDCD3F0BD00CA9A3BEE
:101BF00008B50121402000F049F94FF48060ADF8AC
:101C0000000010208DF8030003208DF802006946C3
:101C10000448FFF732FF4FF480610248FFF7B8FF36
:101C200008BD00000018014008B505240020009000
:101C30004B48FEF753FB4B48FEF750FB4A48FEF774
:101C40004DFB4A48FEF74AFB4748FEF747FB48482A
:101C5000FEF744FB4248FEF741FB46A0FEF73EFB81
:101C60000CE0214645A0FEF739FB4FF47A7000F0F6
:101C70009BFE601E44B2601C00B906E04FF47A710E
:101C8000684600F081F90028EBD100BF601C80B9E4
:101C900042A0FEF723FB4948406800F07F40B0F1C6
:101CA000006F03D1454800F0B3FE02E044A0FEF708
:101CB00015FB53E048A0FEF711FB5748FEF70EFB5B
:101CC0005648FEF70BFB5648FEF708FB5548FEF753
:101CD00005FB55A0FEF702FB00BF4FF47A71684682
:101CE00000F052F90028F8D16846FEF7F7FA9DF89F
:101CF0000000312804D0322805D0332829D114E03F
:101D000000F066FA29E025A0FEF7E8FA2B484068C3
:101D100000F07F40B0F1006F03D1284800F078FE5A
:101D200002E027A0FEF7DAFA17E000F051FA1BA054
:101D3000FEF7D4FA2148406800F07F40B0F1006F10
:101D400003D11E4800F064FE02E01DA0FEF7C6FAB3
:101D500003E03CA0FEF7C2FA00BF00BFAAE7000004
:101D6000902E0008AC2D0008602D0008442E0008BD
:101D7000F82D00080D0A0D0A000000005379737455
:101D8000656D2077696C6C20626520737461727474
:101D9000206166746572202564730D000D0A53740A
:101DA00061727420546865204E65772050726F67A9
:101DB00072616D202E2E2E2E2E2E000000000108A6
:101DC0000D0A496C6C6567616C20464C4153482094
:101DD00041505021000000000D0A3D3D3D3D3D3D7C
:101DE0003D3D3D3D3D3D3D3D3D3D3D3D204D6169E0
:101DF0006E204D656E75203D3D3D3D3D3D3D3D3D7B
:101E00003D3D3D3D3D3D3D3D3D3D3D3D3D3D3D3D02
:101E10003D3D3D0D0A0A0000FC2B0008402C000847
:101E2000842C0008C82C0008506C6561736520453F
:101E30006E74657220746865204E756D6265723AC5
:101E4000000000000D0A496E76616C6964204E75D1
:101E50006D6265722021203D3D3E20546865206EF4
:101E6000756D6265722073686F756C6420626520A1
:101E700065697468657220312C2032206F722033BE
:101E80000D0A000000BFFEE77047704729B1064AFF
:101E900092690243044B9A6104E0034A92698243C7
:101EA000014B9A61704700000010024030B50021DC
:101EB0000022002400232D4D6D6805F00C0121B196
:101EC000042905D0082923D105E0294D056022E029
:101ED000284D05601FE0254D6D6805F47012234DF7
:101EE0006D6805F48034022505EB92421CB9224D41
:101EF000554305600BE01D4D6D6805F400351DB1BF
:101F00001E4D5543056002E01A4D5543056002E041
:101F1000174D056000BF00BF144D6D6805F0F0015E
:101F20000909174D6B5C0568DD4045600F4D6D6814
:101F300005F4E061090A124D6B5C4568DD4085607F
:101F40000A4D6D6805F46051C90A0D4D6B5C45681A
:101F5000DD40C560054D6D6805F44041890B094DB4
:101F60006B5CC568B5FBF3F5056130BD0010024040
:101F700000127A00001BB70000093D00808D5B0055
:101F8000220000203200002070B505460C4606E015
:101F9000284600F0E3F9012801D1002070BD201E81
:101FA000A4F10104F4D1401EF8E72DE9F8430446FA
:101FB0000E4691460020306049466846FFF7E4FF30
:101FC00018B14FF0FF30BDE8F8839DF800001828E5
:101FD00013D006DC012809D0022809D0042820D11A
:101FE00009E041281AD061281BD118E080251BE0A8
:101FF0004FF4806518E00020E5E749466846FFF7A2
:10200000C3FF40B99DF80000182804D14FF0FF30FD
:1020100030600020D7E74FF0FF30D4E700BF012049
:10202000D1E74FF0FF30CEE700BF9DF800002070F1
:10203000012709E0E0194946FFF7A6FF10B14FF06C
:10204000FF30C0E7781C87B2681D8742F2DB6178F9
:10205000A07880F0FF00814202D04FF0FF30B2E75D
:102060002946E01CFFF765FC8046281D215CE81C22
:10207000205C41EA0020404502D04FF0FF30A2E74B
:10208000356000209FE730B503460C461546002218
:1020900007E0184600F008F824F812009B1C501CBA
:1020A00082B2AA42F5DB30BD0146088870470000C5
:1020B0002DE9F05F80468A461746B8F1006F02D3DB
:1020C0003348804502D3FF20BDE8F09FFFF7B6FC00
:1020D000A8F1006B4FEADB25CBF34909C9F5806411
:1020E000A74200DC3C464DE04FF0006101EBC5200B
:1020F0004A142849FFF7C7FF00260BE009EB06004A
:10210000244931F810004FF6FF71884200D003E0F7
:10211000701C86B2A642F1DB00BFA6421BDA4FF06C
:10212000006101EBC520FFF71FFC002608E03AF82C
:10213000160006EB0901174A22F81100701C86B23E
:10214000A642F4DB4FF0006101EBC5204A141149AF
:1021500000F022F804E022465146404600F01CF808
:10216000A74200D10FE06D1C4FF000090AEB440AB2
:10217000A044381B87B2B7F5806F02DD4FF480644E
:1021800000E03C46B0E700BFFFF72EFC00209BE7D5
:1021900000000808380400202DE9F04105460E46ED
:1021A0001746002407E036F814102846FFF726FCEF
:1021B000AD1C601C84B2BC42F5DBBDE8F081704709
:1021C00010B50446204600F0DBF8002010BD0000EA
:1021D0003EB5002000900190029000241CA0FEF764
:1021E0007DF82A4800F0C2FA04461E2000F0DCFB0D
:1021F000002C16DD2648FEF771F82648FEF762F837
:1022000021466846FFF7C8FC23A0FEF767F868463A
:10221000FEF764F823A0FEF761F825A0FEF75EF84C
:1022200014E0601C18B928A0FEF758F80EE0A01CB6
:1022300018B935A0FEF752F808E0E01C18B939A02B
:10224000FEF74CF802E03DA0FEF748F83EBD000066
:1022500057616974696E6720666F722074686520C3
:1022600066696C6520746F2062652073656E7420EA
:102270002E2E2E20287072657373202761272074FC
:102280006F2061626F7274290A0D0000380000200F
:102290000C2D0008380C00200A0D2053697A653A8D
:1022A000200000002042797465730D0A00000000D0
:1022B0002D2D2D2D2D2D2D2D2D2D2D2D2D2D2D2D4E
:1022C0002D2D2D0A000000000A0A0D5468652069B2
:1022D0006D6167652073697A652069732068696735
:1022E000686572207468616E2074686520616C6C2A
:1022F0006F776564207370616365206D656D6F72C3
:1023000079210A0D000000000A0A0D5665726966FF
:1023100069636174696F6E206661696C6564210A26
:102320000D0000000D0A0A41626F7274656420623C
:102330007920757365722E0A0D0000000A0D466142
:10234000696C656420746F207265636569766520C9
:102350007468652066696C65210A0D0010B5044635
:102360002021064800F064F928B1044800F0DAF9A9
:102370002070012010BD0020FCE700000038014063
:1023800010B504462146054800F0D1F900BF802170
:10239000024800F04DF90028F9D010BD0038014086
:1023A00010B500F001F810BD0CB5002001900090B0
:1023B0003348006840F480303149086000BF30483D
:1023C000006800F4003000900198401C01900098D3
:1023D00018B90198B0F5A06FF1D12948006800F450
:1023E000003010B10120009001E000200090009822
:1023F000012843D12348006840F0100021490860BB
:102400000846006820F0030008600846006840F0B5
:10241000020008601A484068194948600846406848
:1024200048600846406840F480604860084640685C
:1024300020F47C1048600846406840F4E81048608A
:102440000846006840F08070086000BF0C480068D3
:1024500000F000700028F9D00948406820F003001F
:10246000074948600846406840F00200486000BFE5
:102470000348406800F00C000828F9D10CBD0000AA
:10248000001002400020024070B502460C460021B8
:10249000002500231078302843D15078782802D0C6
:1024A000507858283DD1907808B9002070BD02219D
:1024B00030E0505C10B9236001252DE0505C4128CC
:1024C00002DB505C46280BDD505C612802DB505C6F
:1024D000662805DD505C302819DB505C392816DC95
:1024E000505C302805DB505C392802DC505C303809
:1024F0000AE0505C412805DB505C462802DC505C59
:10250000373801E0505C573800EB031301E0002539
:1025100002E0491C0B29CCD300BF0B2934D3002582
:1025200032E000212AE0505C10B92360012527E049
:10253000505C6B2802D0505C4B2804D119B19B022F
:10254000236001251CE0505C6D2802D0505C4D28B2
:1025500004D119B11B052360012511E0505C30281E
:1025600009DB505C392806DC505C303803EB83060D
:1025700000EB460301E0002502E0491C0B29D2D301
:1025800000BF0B2900D3002528468FE7042808D177
:102590004FF0E021096941F004014FF0E0221161A0
:1025A00007E04FF0E021096921F004014FF0E0223B
:1025B000116170477047000010B51348006840F083
:1025C00001001149086008464068104908400E495A
:1025D0004860084600680E4908400B4908600846F4
:1025E000006820F4802008600846406820F4FE005F
:1025F00048604FF41F008860FFF7D2FE4FF0006084
:102600000449086010BD0000001002400000FFF8FF
:10261000FFFFF6FE08ED00E021B1828942F400528E
:10262000828104E082894DF6FF731A4082817047EF
:1026300002460020B1F5007F00D100BF13880B4097
:102640000BB1012000E00020704700002DE9F047A9
:1026500086B005460E460024A24600BFA1460027CC
:10266000B08900B100BF2F462C8A4CF6FF700440A1
:10267000F08804432C82AC894EF6F3100440B088F5
:1026800031890843718908430443AC81AC8A4FF611
:10269000FF400440B0890443AC8201A8FFF706FC68
:1026A0001F48874202D1DDF810A001E0DDF80CA040
:1026B000A88900F4004040B10AEBCA0000EB0A1000
:1026C00031684900B0FBF1F807E00AEBCA0000EB03
:1026D0000A1031688900B0FBF1F86420B8FBF0F013
:1026E00004012009642101FB1089A88900F400403D
:1026F00040B1322000EBC900B0FBF1F000F0070060
:10270000044308E0322000EB09106421B0FBF1F033
:1027100000F00F0004432C8106B0BDE8F0870000F4
:102720000038014001468888C0F308007047C1F3B3
:1027300008028280704710B503460C46194644F4DF
:10274000807200BF4900520002F4807000B1491C41
:1027500001F4803010B141F22100414002F4803098
:102760000028EFD088B210BD00BFFEE72DE9F04F82
:10277000ADF2344D064600200290DFF8A4A105908A
:102780008146039000BF002700200490B04600BFA0
:102790004FF4801206A90BA8FFF707FC10B101281F
:1027A0007ED191E04FF000090698B0F1FF3F01D0D3
:1027B00070B907E00620FFF703FD00200DF2344D4D
:1027C000BDE8F08F0620FFF7FBFC0120049079E0C4
:1027D0009DF82D00F9B2884203D01520FFF7F0FCD8
:1027E00070E0002F48D19DF82F0000283DD0002533
:1027F0000DF12F0405E014F8012B28466D1C494902
:102800000A54207808B1FF2DF5DD002228466D1C02
:1028100044490A540025641C05E014F8012B28469D
:102820006D1C07A90A542078202801D00F2DF4DB55
:10283000002228466D1C07A90A5402A907A8FFF721
:1028400023FE0298B0F1031F08DB1820FFF7B8FC45
:102850001820FFF7B5FC4FF0FF30AFE70620FFF779
:10286000AFFC4320FFF7ACFC29E00620FFF7A8FCF3
:1028700001200490059025E00DF12F014046069AB5
:10288000FDF738FEB346069880B2019000EBD07099
:10289000421059465046FFF70BFC38B9069800E045
:1028A0001BE082440620FFF78BFC08E01820FFF7AE
:1028B00087FC1820FFF784FC6FF001007EE77F1C87
:1028C0000120039000BF1CE01820FFF779FC1820BE
:1028D000FFF776FC6FF0020070E70398002801DD37
:1028E00009F10109B9F1050F07DD1820FFF768FCB0
:1028F0001820FFF765FC002060E74320FFF760FC2D
:1029000000BF00BF049800283FF442AF00BF00BFE3
:10291000059800283FF437AF00BF00BF02984DE78D
:1029200000000108380C0020490050EAC12018BFFF
:1029300004204A0D18BF40F0010040F2FF72B2EBD4
:10294000515F08BF40F00200012808BF0520704712
:1029500030380A2801D20120704700207047014614
:1029600000BF704710B56FF00400FFF70FFE0A4874
:1029700000680A49B0FBF1F0094908700846007880
:1029800000EB4001C1EBC0104FF6FF7101EAC0003F
:102990000449088010BD00000000002000127A00E9
:1029A000180000201A0000200146114A12884A43EC
:1029B0004FF0E0235A6100229A611A46126942F0F0
:1029C00001021A6100BF4FF0E022106900F001021D
:1029D0001AB100F48032002AF5D04FF0E0221269DB
:1029E00022F001024FF0E0231A6100229A61704741
:1029F0001A00002000BF054A128802F04002002A97
:102A0000F9D0C2B2014B1B1D1A807047003801403B
:102A100010B50446206807490840B0F1005F08D1AE
:102A20006068054908602068FDF726FC02480068D8
:102A3000804710BD0000FE2F14000020FFF792FF1A
:102A4000FFF7D6F84FF4E13000F002F8FFF7ECF8AA
:102A500010B586B00446012144F20400FFF716FACF
:102A60004FF40070ADF8140003208DF81600182004
:102A70008DF8170005A91248FEF7FFFF4FF480609C
:102A8000ADF8140004208DF8170005A90C48FEF7D6
:102A9000F4FF01940020ADF80800ADF80A00ADF88D
:102AA0000C00ADF810000C20ADF80E0001A905488F
:102AB000FFF7CCFD01210348FFF7AEFD06B010BDC6
:102AC000000801400038014010B500290AD00878FC
:102AD000002807D005487844FEF72EFB002801D0D7
:102AE000002010BD0248784410BD000026040000FC
:102AF0001E04000010B500290AD00878002807D06D
:102B000005487844FEF718FB002801D0002010BDCE
:102B10000248784410BD0000160400000E040000B6
:102B2000FEF77EB80400000800000000000000026C
:102B30000001000010000000000000000000000084
:102B400030313233343536373839414243444546E3
:102B500040305800303132333435363738396162DD
:102B6000636465664030780002400000000000A009
:102B70000000000005400000000000C80000000048
:102B80000C4000000000409C0000000019400000C4
:102B90000020BCBE0000000034400000BFC91B8EF6
:102BA00000000004B5400000504BCFD06607E2CFD4
:102BB000010000006C4100003E8251AADFEEA73404
:102BC00001000000D9420000DCB5A0E23A301F97B6
:102BD000FFFFFFFFB4450000FD25A0C8E9A3C14FDA
:102BE000FFFFFFFFFF3F000000000080000000002B
:102BF000FF3F000000000080000000002020446F24
:102C0000776E6C6F616420496D61676520546F2039
:102C100074686520496E7465726E616C20466C61E3
:102C20007368202D2D2D2D2D2D2D2D2D2D2D2D2D60
:102C30002D2D2D2D2D2D2D20310D0A0A00000000E7
:102C400020204578656375746520546865204E655D
:102C5000772050726F6772616D202D2D2D2D2D2DD7
:102C60002D2D2D2D2D2D2D2D2D2D2D2D2D2D2D2D94
:102C70002D2D2D2D2D2D2D2D2D2D2D20320D0A0AF2
:102C80000000000020204175746F2055706461744D
:102C90006520415050202D2D2D2D2D2D2D2D2D2DEC
:102CA0002D2D2D2D2D2D2D2D2D2D2D2D2D2D2D2D54
:102CB0002D2D2D2D2D2D2D2D2D2D2D2D2D2D2D2051
:102CC000330D0A0A000000003D3D3D3D3D3D3D3DC8
:102CD0003D3D3D3D3D3D3D3D3D3D3D3D3D3D3D3D24
:102CE0003D3D3D3D3D3D3D3D3D3D3D3D3D3D3D3D14
:102CF0003D3D3D3D3D3D3D3D3D3D3D3D3D3D3D3D04
:102D00003D3D3D3D3D0D0A0A000000000A0A0D2030
:102D100050726F6772616D6D696E6720436F6D7081
:102D20006C65746564205375636365737366756C55
:102D30006C79210A0D2D2D2D2D2D2D2D2D2D2D2D87
:102D40002D2D2D2D2D2D2D2D2D2D2D2D2D2D2D2DB3
:102D50002D2D2D2D2D0D0A204E616D653A20000080
:102D60000D0A3D202020202020202020202020206F
:102D70002020202020202020202020202020202053
:102D80002020202020202020202020202020202043
:102D90002020202020202020202020202020202033
:102DA000202020202020203D000000000D0A3D2092
:102DB00020202020202020202020202020284329DF
:102DC00020434F5059524947485420323031322025
:102DD00053544D6963726F656C656374726F6E698D
:102DE000637320202020202020202020202020204D
:102DF0002020203D000000000D0A3D202020202042
:102E000020202020202020202020202020202020C2
:102E10002020202020202020202020202020427937
:102E2000204D4344204170706C69636174696F6E1A
:102E3000205465616D202020202020202020203D6E
:102E4000000000000D0A3D202053544D333246301F
:102E5000787820496E2D4170706C69636174696F78
:102E60006E2050726F6772616D6D696E6720417080
:102E7000706C69636174696F6E2020285665727387
:102E8000696F6E20312E302E3029203D0000000069
:102E90000D0A3D3D3D3D3D3D3D3D3D3D3D3D3D3DC5
:102EA0003D3D3D3D3D3D3D3D3D3D3D3D3D3D3D3D52
:102EB0003D3D3D3D3D3D3D3D3D3D3D3D3D3D3D3D42
:102EC0003D3D3D3D3D3D3D3D3D3D3D3D3D3D3D3D32
:102ED0003D3D3D3D3D3D3D3D0000000028300008AA
:102EE00000000020380000006C010008603000087D
:102EF0003800002060130000880100081C0000005A
:102F000043000000F8FFFFFF0C0000000E0000006F
:102F10000F0000002E000000100100004300000020
:102F2000F8FFFFFF004040404040404040404141EA
:102F3000414141404040404040404040404040408E
:102F40004040404040050202020202020202020228
:102F50000202020202202020202020202020200225
:102F600002020202020290909090909010101010B5
:102F70001010101010101010101010101010101051
:102F800002020202020288888888888808080808E5
:102F900008080808080808080808080808080808B1
:102FA00002020202400000000000000000000000D9
:102FB0000000000000000000000000000000000011
:102FC0000000000000000000000000000000000001
:102FD00000000000000000000000000000000000F1
:102FE00000000000000000000000000000000000E1
:102FF00000000000000000000000000000000000D1
:1030000000000000000000000000000000000000C0
:1030100000000000000000000000000000000000B0
:10302000000000000000000000A24A0400000000B0
:103030000000000001020304060708090000000068
:10304000000000000000000000000000000001027D
:10305000030401020304060708090204060800002D
:04000005080002816C
:00000001FF
